:1000000075C3000090C300008EC300008CC30000C5
:100010008AC3000088C3000086C3000084C30000B8
:1000200082C3000080C300000C943F120C949B120A
:100030007AC3000078C3000076C3000074C30000D8
:1000400072C3000070C300006EC300006CC30000E8
:100050006AC3000059C4000066C3000064C3000006
:1000600062C3000060C300005EC300005CC3000008
:100070005AC3000058C3000056C3000054C3000018
:1000800052C3000050C300004EC300004CC3000028
:100090004AC3000048C3000046C3000044C3000038
:1000A00042C3000040C300003EC30000701176113F
:1000B0007F1185118B11911197119D11620D620DA8
:1000C000DE0D0A0E170E230EBE0DEA0DDC0D080E16
:1000D000620D620D1F0E270EDC0D080E170E230E8B
:1000E000E00D0C0EC00DEC0D170E230ECC0DF80D0F
:1000F000620D620D8110BC0DE20D0E0E620D620DDF
:10010000620D620D1B0E250E620D620D620D620DF9
:10011000620D620D620D620D1B0E250E8810BD0D65
:100120008110BC0DE40D100E620D620DE60D120E75
:10013000B00E7F0DB50E800DBA0E810D740E730DCD
:10014000A60E7D0DC00DEC0DAB0E7E0D2E0E650DB9
:10015000650E700DD40FA90DE80FAC0D560E6D0D88
:10016000E80D140EC20DEE0D8D0E780D510E6C0DB6
:10017000290E640D3D0E680D6F0E720D620D620D3D
:10018000620D620D830E760D6A0E710D7E0E750D79
:10019000880E770D380E670DA10E7C0D620D620D75
:1001A0009C0E7B0D920E790D600E6F0D330E660D59
:1001B000970E7A0D8110BC0D620D620D5B0E6E0DF7
:1001C0004C0E6B0D470E6A0D420E690D790E740DC3
:1001D000AB0E7E0DD20DFE0DC40E830DC90E840D27
:1001E000CE0E850DD30E860DD80E870D3C0F9A0DC1
:1001F0002D0F980DDD0E880DE20E890DE70E8A0D8C
:10020000EC0E8B0DBF0E820D320F990D620D620D3B
:10021000610D610D610D610D610D610D610D610D6E
:10022000610D610D610D610D610D610D610D610D5E
:10023000610D610D610D610D610D610D610D610D4E
:10024000620D620D610D610D610D610D610D610D3C
:10025000610D610D610D610D610D610D610D610D2E
:10026000610D610D610D610D610D610D610D610D1E
:10027000610D610D610D610D610D610D610D610D0E
:100280007A10BB0D840FA10D0B10B00D3D10B60DF3
:10029000410F9B0D610D610D610D610D3810B50DA4
:1002A000980FA30D5110B80DED0FAD0DF70FAE0D5A
:1002B000610D610D610D610DB60FA60D0110AF0D41
:1002C0001510B10D1F10B20DAC0FA50D620D620D12
:1002D000620D620D6C10BA0D5C0F9D0D660F9E0DC8
:1002E000D90FAA0D5E10B90D7A0FA00D610D610D29
:1002F000620D620D2E10B40DC00FA70DCA0FA80D10
:10030000510F9C0D610D610D610D610D700F9F0D01
:100310002910B30D4710B70DDE0FAB0DA20FA40DC2
:10032000610D610D610D610D610D610D610D610D5D
:10033000610D610D610D610D610D610D610D610D4D
:10034000610D610D610D610D8E0FA20D610D610DCD
:10035000610D610D610D610D610D610D620D620D2B
:10036000610D610D610D610D610D610D610D610D1D
:10037000610D610D610D610D610D610D610D610D0D
:10038000610D610DBF0E820D610D610D610D610D7D
:10039000620D620D610D610D610D610D610D610DEB
:1003A000610D610D610D610D610D610D610D610DDD
:1003B000610D610D610D610D610D610D610D610DCD
:1003C000610D610D610D610D610D610D610D610DBD
:1003D000D20DFE0DC20DEE0DD60D020EBE0DEA0DB4
:1003E000610D610D610D610D610D610D5E10B90D45
:1003F000C40E830DC90E840DCE0E850DF70FAE0D04
:10040000610D610DDE0D0A0ED40D000EC80DF40D48
:10041000C60DF20DCA0DF60DD00DFC0D620D620D6C
:10042000620D620D610D610DD30E860DD80E870D24
:10043000DD0E880DD40FA90DE80FAC0D610D610D17
:10044000D80D040ECC0DF80DC40DF00DCE0DFA0D27
:10045000DA0D060E610D610D610D610D610D610D0D
:10046000E20E890DE70E8A0DEC0E8B0D3810B50DDE
:10047000D90FAA0D610D610D610D610D610D610D49
:10048000610D610D610D610D610D610D610D610DFC
:10049000610D610D610D610D610D610DC20DEE0DFE
:1004A0000110AF0DAC0FA50D610D610D620D620D58
:1004B000610D610D610D610D610D610D610D610DCC
:1004C000610D610D610D610D610D610D610D610DBC
:1004D000610D610D610D610D610D610D610D610DAC
:1004E000620D620D160E630D610D610D610D610DE2
:1004F000610D610D610D610D610D610D610D610D8C
:10050000610D610D610D610D610D610D610D610D7B
:10051000610D610D610D610D610D610D610D610D6B
:10052000610D610D610D610D610D610D610D610D5B
:10053000610D610D610D610D610D610D610D610D4B
:10054000610D610D610D610D610D610D610D610D3B
:10055000610D610DDE0D0A0E610D610D610D610D04
:10056000610D610D610D610D610D610D620D620D19
:10057000620D620D610D610D610D610D610D610D09
:10058000610D610D610D610D610D610DDC0D080ED8
:100590000F0F920D140F930D190F940D1E0F950D43
:1005A000230F960D280F970D610D610D610D610DE3
:1005B000610D610D610D610D610D610D610D610DCB
:1005C000610D610D610D610DF10E8C0DF60E8D0D3D
:1005D000FB0E8E0D000F8F0D050F900D0A0F910D64
:1005E000610D610D610D610D610D610D610D610D9B
:1005F000610D610D610D610D610D610D0001000066
:10060000D4061200020000730622002200009506A4
:100610003F00210000850609000300006F06040169
:10062000030904650608020309042D06363603454E
:1006300000720067006F0044006F007800200045E2
:1006400000720067006F006E006F006D006900634C
:100650000020004B006500790062006F00610072AD
:100660000064000000080344004900590000000431
:1006700003090409022200010100C032090400003C
:100680000103010100092111010001223F000705BA
:10069000830308000105010906A1017501950805FC
:1006A0000719E029E71500250181029501750881E8
:1006B0000395057501050819012905910295017534
:1006C000039103950675081500256805071900298B
:1006D000688100C01201000200000020501D286047
:1006E000000101020001000001C1060011241FBE2B
:1006F000CFEFDAE0DEBFCDBF11E0A0E0B1E0E4E78C
:10070000FFE202C005900D92AE30B107D9F712E0BA
:10071000AEE0B1E001C01D92A134B107E1F70E9443
:10072000F7130C94B8176CCC1F93CF93DF93EC01A5
:1007300019818881811B8530B8F0812F90E0029665
:100740008F3F910509F010F41E5F01C01FEF84E098
:10075000189FB00111248A819B810E948E150097F9
:1007600029F018839B838A8380E001C081E0DF91B8
:10077000CF911F910895CF93DF93A62FFC01618144
:100780004A2F50E0262F30E02150310942175307FD
:100790009CF4EC01EA81FB81440F551F440F551F67
:1007A000E40FF51F44815581668177814083518331
:1007B00062837383AF5FE2CF61506183DF91CF913A
:1007C000B3CFEF92FF920F931F93CF93DF93EC0180
:1007D0007B018A014115510509F189818F3F01F1A2
:1007E0008F5F8983CE01A0DF9981882319F0915012
:1007F000998316C0EA81FB81DF0184E0989FA00DF8
:10080000B11D11241497ED92FC92898194E0899F87
:10081000E00DF11D112434971383028380E001C0A1
:1008200081E0DF91CF911F910F91FF90EF9008959C
:10083000AB01BC0186E191E0C4CFCF93809114015C
:100840009091150101969093150180931401C0E0D9
:1008500080911701C817D8F4E0911801F09119019F
:1008600084E0C89FE00DF11D1124808191810097E3
:1008700049F40280F381E02D09956C2F86E191E027
:100880007ADF03C0019791838083CF5FE1CFCF915F
:100890000895CF9380910E0190910F01019690934E
:1008A0000F0180930E01C0E080911101C817D8F4A8
:1008B000E0911201F091130184E0C89FE00DF11D59
:1008C000112480819181009749F40280F381E02D09
:1008D00009956C2F80E191E04EDF03C00197918371
:1008E0008083CF5FE1CFCF9108958AEF87BD82E00B
:1008F00084BD93E095BD80936E0080E00895809163
:100900001A0190911B0108951F920F920FB60F923A
:1009100011248F939F9380911A0190911B0101964E
:1009200090931B0180931A019F918F910F900FBE9E
:100930000F901F901895DF92EF92FF920F931F93E5
:10094000CF93DF9380911D01D82ED29430EFD32224
:10095000D594D594D594D594982F959595959595AE
:1009600095950D2D090F97FD03C005300CF46FC050
:100970008F7010911C01602F772767FD7095811192
:100980000FC0812F90E0861B970B9C012E5F3F4F7D
:100990002F3F310509F098F5C2E0C10FC01B36C0EA
:1009A00040E050E0812F90E0861B970BED2CFF2458
:1009B000E7FCF0942D2D240F30E04F5F5F4F281798
:1009C0003907ACF4C0911E01D0911F01F901EE1955
:1009D000FF09EE0FFF1FEC0FFD1FD901AA0FBB1F70
:1009E000AC0FBD1F2D913C9131832083E3CF802F2D
:1009F0008295807F80931D01053018F628C08F3FB7
:100A0000910519F010F081E023C0CFEF6C2F70E05A
:100A1000660F771F80911E0190911F010E948E1515
:100A2000009789F330911D01232F25952595259554
:100A30002595211B2C0F2295207F3F70322B309360
:100A40001D01C0931C0190931F0180931E0180E043
:100A5000DF91CF911F910F91FF90EF90DF9008955C
:100A6000EF92FF920F931F93CF93DF938091210119
:100A7000F82EF29490EFF922F594F594F594F5940C
:100A8000982F95959595959595950F2D090F97FD0F
:100A900003C005300CF475C08F7010912001602FD9
:100AA000772767FD709581110FC0812F90E0861B1D
:100AB000970B9C012E5F3F4F2F3F310509F0C8F582
:100AC000C2E0C10FC01B3CC040E050E0212F30E02D
:100AD000261B370BCF2DDD27C7FDD095EF2CE40E5D
:100AE0008E2D90E04F5F5F4F82179307CCF4A0915B
:100AF0002201B09123018C1B9D0BFC01EE0FFF1F07
:100B0000E80FF91FEA0FFB1F83E0E89EA00DB11D5F
:100B100011248D919D91AC9180839183A283DECF2E
:100B2000802F8295807F80932101053008F0BDCF12
:100B300028C08F3F910519F010F081E023C0CFEF5E
:100B400083E0C89FB001112480912201909123017C
:100B50000E948E15009789F330912101232F25954E
:100B6000259525952595211B2C0F2295207F3F70DB
:100B7000322B30932101C093200190932301809365
:100B8000220180E0DF91CF911F910F91FF90EF90B4
:100B90000895E1E2F1E0808191E0980F9F70807FFD
:100BA000892B80835DCFF999FECF92BD81BDF89AE4
:100BB00080B508950F931F93CF93DF931F92CDB706
:100BC000DEB78C016983EFDF6981681791F06F3FB1
:100BD00019F4FD98FC9A06C08F3F11F4FD9A01C0EC
:100BE000FD98FC9812BD01BD60BDF894FA9AF99A7F
:100BF00078940F90DF91CF911F910F9108950F93EB
:100C00001F93CF93DF9320912101422F4295407F84
:100C100045954595459545958091200190E0841B2B
:100C2000910947FD9395259525952595259533277C
:100C300027FD30958217930751F4809136028E7FFD
:100C400080933602DF91CF911F910F910895E0912B
:100C50002201F091230123E04202E00DF11D112455
:100C60008081982F9F7381F48295869586958370F5
:100C70009181292F220F220F6281822B92959695C6
:100C80009695937097DFE6C0913009F08DC0828110
:100C900081110BC07EDF80911D0191E0980F9F7044
:100CA000807F892B80931D0146DE80911D018295F6
:100CB000807F8595859585958595880F990B009101
:100CC0001E0110911F01080F191FF80180819181E9
:100CD0006ADF909121019295907F959595959595D4
:100CE0009595C0912201D0912301F3E09F02C00DA0
:100CF000D11D11242881229526952695237099814E
:100D0000392F330F330F682F832F822B92959695AF
:100D1000969593704FDF4881342F329536953695EE
:100D200033702981522F550F550F852F832B922F0A
:100D30009295969596959370F801208131814F7325
:100D400082179307A8F401969370282F2295220FFB
:100D5000220F207C242B28839295990F990F907C49
:100D600086958695892B898380819181019616C00D
:100D700081509C4F9370282F2295220F220F207CA8
:100D8000242B28839295990F990F907C86958695B0
:100D9000892B8983F80180819181019791838083D8
:100DA0008A8181508A8357C0923009F053C0C09124
:100DB0001D01C295C07FC595C595C595C5958C2F5C
:100DC000880F990BE0911E01F0911F01E80FF91FA8
:100DD000808181110AC0DDDECF5FCF7080911D015F
:100DE000807F8C2B80931D01A6DD8091210182954F
:100DF000807F8595859585958595E0912201F09177
:100E0000230123E08202E00DF11D112480818295EF
:100E10008695869583709181292F220F220F6281FA
:100E2000822B9295969596959370C4DE80911D01C4
:100E30008295807F8595859585958595880F990BF9
:100E4000E0911E01F0911F01E80FF91F8081815090
:100E5000808301C09EDE6FEF75E081E090E0DF915E
:100E6000CF911F910F91E4CC1F93CF93DF9300D0CC
:100E7000CDB7DEB7182F20912101322F307F3051AE
:100E80002F70232B2093210169839A83E9DD309110
:100E9000210169819A81882349F0832F807F805FB7
:100EA0003F70382B3093210181E030C02091200128
:100EB00021503595359535953595231BE0912201C7
:100EC000F091230183E0289FE00DF11D1124812F73
:100ED0008295880F880F807C80839295990F990F57
:100EE000907C812F86958695892B81836283809162
:100EF000360280FD0AC06FEF75E080E090E098DC7C
:100F00008091360281608093360280E00F900F90CE
:100F1000DF91CF911F910895E9EBF0E080818C7F04
:100F200080838CE08093B800089584EA8093BC00AD
:100F30008091BC0087FFFCCF8091B900887F88300A
:100F400049F08091B900887F803121F08091B9000B
:100F5000887F089580E0089584E98093BC008091A3
:100F6000BC0084FDFCCF08958093BB0084E880938F
:100F7000BC008091BC0087FFFCCF8091B900887FC6
:100F8000883171F08091B900887F883249F0809172
:100F9000B900887F803421F08091B900887F08955E
:100FA00080E0089524EC2093BC002091BC0027FF32
:100FB000FCCF2091BB00FC0120838091B900887F89
:100FC000803521F08091B900887F089580E00895F0
:100FD00060E080E090E048DF81112AC060E081E0BD
:100FE00090E042DF811124C063E082E090E03CDFCA
:100FF00081111EC06FEF83E090E036DF811118C0D1
:1010000061E084E090E030DF811112C06FEF85E095
:1010100090E02ADF81110CC085E090E090933802C7
:101020008093370210923A021092390280E00895BC
:1010300081E00895CF93DF9380E090E0B4DD8111EB
:1010400014C081E090E0AFDD81110FC082E090E03C
:10105000AADD833051F483E090E0A5DD8F3F29F4D1
:1010600084E090E0A0DD813019F0DF91CF91B0CF26
:1010700085E090E098DDC5E0D0E08F3F41F0CE0103
:10108000019691DDC80FD11DCE018DDDF6CFD09335
:101090003802C093370210923A021092390280E06F
:1010A000DF91CF910895682F81E00C945F11682F34
:1010B00080E00C945F11F89481E08093E00080E27E
:1010C0008093D8001092C9008FE19EE40197F1F758
:1010D00000C000001DBA109268001CBC10BE1FBAF0
:1010E00010927A0010926E0010926F0010927100B0
:1010F000109272001092C900ECEBF0E0108214B86C
:1011000017B81AB81DB810BA108215B818B81BB89D
:101110001EB811BA0C94003F0895CF93C0912501D9
:10112000809124018C1B8530E0F08C2F90E002969A
:101130008F3F910509F010F4CE5F01C0CFEF6C2F07
:1011400070E0660F771F80912601909127010E9421
:101150008E15009741F0C09324019093270180934E
:10116000260180E001C081E0CF9108952091250102
:1011700030E090E08217930774F421503109281B66
:10118000390B220F331FE0912601F0912701E20F66
:10119000F31F8181089580E00895409125012091F9
:1011A00026013091270190E0941769F02E5F3F4FA0
:1011B000F90132975081581304C08FEF840F891BB7
:1011C00008959F5FF1CF8FEF0895EF92FF920F93F5
:1011D0001F93CF93DF93082FF62E142F862FDDDF7A
:1011E000209125018F3F79F030E021503109281BF3
:1011F0003109220F331FE0912601F0912701E20F00
:10120000F31F118337C02F3FA1F1E1E0E20FE0931C
:101210002501E22EE01AF0E0CE2DD0E0CE17DF0758
:1012200034F08091250181508093250122C075DF23
:101230008111F7CF909125019150E0912601F09115
:101240002701E91660F4E90FF11DE90FF11DDF0137
:1012500012970D90BC91A02DB183A083EDCFDE013C
:10126000AA0FBB1FAE0FBF1FFC9211961C93802FBD
:1012700001C08FEFDF91CF911F910F91FF90EF9001
:101280000895CF938ADFC82F8F3F09F12091250160
:101290009FEF920F892F8C1B30E021503109482F8E
:1012A00050E04217530774F4E0912601F0912701B2
:1012B000440F551FE40FF51F428153815183408332
:1012C0008F5FEDCF9093250128DF8C2F01C08FEF2A
:1012D000CF910895809125010895D6D1811108C03C
:1012E0002BD1811107C0A6DE882331F083E0089559
:1012F00081E0089582E0089580E00895CF93DF9320
:10130000EC0189D2811106C0CE0141D1882321F0A0
:1013100082E003C081E001C080E0DF91CF910895B9
:10132000823031F0833031F0813029F4259A0895EC
:10133000269A0895279A0895823031F0833031F04B
:10134000813029F4259808952698089527980895BE
:10135000282FCB01BA01223091F02330F1F0213057
:1013600049F520E030E04FE753E40E9403150E9466
:10137000AE1470E07093890060938800089520E0B7
:1013800030E04FE753E40E9403150E94AE1470E072
:1013900070938B0060938A00089520E030E04FE75F
:1013A00053E40E9403150E94AE1470E070938D0008
:1013B00060938C00089581E0B3DF82E0B1DF83E0C9
:1013C000AFCF81E0B9DF82E0B7DF83E0B5CFCF9266
:1013D000DF92EF92FF926B017C01AB01BC0181E0D7
:1013E000B7DFB701A60182E0B3DFB701A60183E052
:1013F000FF90EF90DF90CF90ABCF6DEC7CEC8CE466
:101400009DE3E5DFD8CFDDDF60E070E080E09FE3C3
:10141000DECF1F93CF93DF938FE39CE90197F1F722
:1014200000C0000013B1D3B1D074C3B1C078C9DF1C
:101430009FE727E288E0915020408040E1F700C01C
:101440000000B9DF9FE727E288E09150204080400C
:10145000E1F700C00000B5DF9FE727E288E0915088
:1014600020408040E1F700C00000A5DF9FE727E2B1
:1014700088E0915020408040E1F700C00000A1DFEB
:101480009FE727E288E0915020408040E1F700C0CC
:10149000000091DF9FE727E288E0915020408040E4
:1014A000E1F700C000008DDF9FE727E288E0915060
:1014B00020408040E1F700C0000015FD259ADD23A3
:1014C00011F082E02DDFCC2329F083E0DF91CF9172
:1014D0001F9126CFDF91CF911F9108958FE790E064
:1014E00090938900809388002FE782E490E1215057
:1014F00080409040E1F700C000008FE790E09093BB
:101500008B0080938A002FE782E490E12150804095
:101510009040E1F700C000008FE790E090938D00CD
:1015200080938C002FE782E490E12150804090402E
:10153000E1F700C000000895CF93F7DC80E414DDEC
:10154000C82F811120C080E00FDD80E80DDD8FEF16
:101550000BDD02DDEADC80E407DDC82F811113C05A
:101560008CE002DD80E800DD8FEFFEDCF5DCDDDC09
:1015700080E4FADCC82F811106C084E1F5DC8FEF2E
:10158000F3DC8FEFF1DCE8DC8C2FCF9108958F92A4
:101590009F92BF92CF92DF92EF92FF920F931F9391
:1015A000CF93DF931F92CDB7DEB77C01C5DFB82E96
:1015B000882369F096E0F70187E011928150E9F7FE
:1015C00091508EE0E80EF11C9111F5CF4FC000E074
:1015D00010E0CC24C394D12CA8DC80E4C5DC82E1EB
:1015E000C3DCC601002E01C0880F0A94EAF780957B
:1015F000BBDCB2DC9ADC80E4B7DC83E1B5DC95DCF3
:1016000081E4B2DCCE010196CDDCA6DC8981882E96
:10161000912C60E070E045E050E0D701A00FB11FD1
:10162000FD01E60FF71F9401042E02C035952795A2
:101630000A94E2F72170332781E028272170208364
:1016400041505109625F7F4F4F3F8FEF580741F77D
:101650000F5F1F4F0730110509F0BECF66DC80E435
:1016600083DC82E181DC8FEF7FDC76DC8B2D0F90D9
:10167000DF91CF911F910F91FF90EF90DF90CF906E
:10168000BF909F908F900895E1E6F0E080E880831E
:10169000108256985E9824982C9893DE89EA80935D
:1016A000800089E08093810037DC3F9885E08A954F
:1016B000F1F70000579885E08A95F1F700005498FB
:1016C00085E08A95F1F70000559885E08A95F1F755
:1016D00000006E9885E08A95F1F70000479A85E052
:1016E0008A95F1F700005F9A85E08A95F1F700008E
:1016F0005C9A85E08A95F1F700005D9A85E08A950D
:10170000F1F70000769A85E08A95F1F70000879856
:1017100085E08A95F1F70000869885E08A95F1F7D3
:101720000000859885E08A95F1F70000849885E0AF
:101730008A95F1F70000819885E08A95F1F700001D
:10174000809885E08A95F1F70000209885E08A95D9
:10175000F1F70000219885E08A95F1F700002298C2
:1017600085E08A95F1F70000239885E08A95F1F7E6
:101770000000529885E08A95F1F70000539885E0C3
:101780008A95F1F700003E9885E08A95F1F7000010
:101790008F9A85E08A95F1F700008E9A85E08A9508
:1017A000F1F700008D9A85E08A95F1F700008C9A98
:1017B00085E08A95F1F70000899A85E08A95F1F72E
:1017C0000000889A85E08A95F1F70000289885E066
:1017D0008A95F1F70000299885E08A95F1F70000D5
:1017E0002A9885E08A95F1F700002B9885E08A9584
:1017F000F1F700005A9885E08A95F1F700005B98B0
:1018000085E08A95F1F70000469885E08A95F1F722
:10181000000080E00895FC01209A85E08A95F1F7A8
:1018200000008FB18095881F8827881F87838FB11C
:1018300091E086FB882780F98927858B8FB185FB0E
:10184000882780F9892783A38FB1829581708927A2
:1018500081AB8FB186958170892787AF8FB1DF010A
:10186000AA5BBF4F8170892717968C93209885E0DB
:101870008A95F1F70000219A85E08A95F1F700003A
:101880008FB18095881F8827881F80878FB186FB3E
:10189000882780F98927868B8FB185FB882780F977
:1018A000892784A38FB182958170892782AB8FB1FC
:1018B000DF01A05CBF4F8695817089278C938FB123
:1018C000DF01AA5BBF4F8170892718968C932198FE
:1018D00085E08A95F1F70000229A85E08A95F1F774
:1018E00000008FB18095881F8827881F81878FB15E
:1018F00086FB882780F98927878B8FB185FB88270E
:1019000080F9892785A38FB182958170892783AB60
:101910008FB1DF01AF5BBF4F8695817089278C93B4
:101920008FB1DF01AA5BBF4F8170892719968C9315
:10193000229885E08A95F1F70000239A85E08A9540
:10194000F1F700008FB18095881F8827881F828754
:101950008FB186FB882780F98927808F8FB185FB1F
:10196000882780F9892786A38FB18295817089277E
:1019700084AB8FB1DF01AE5BBF4F86958170892745
:101980008C938FB1DF01AA5BBF4F817089271A96B4
:101990008C93239885E08A95F1F70000529A85E0B0
:1019A0008A95F1F700008FB18095881F8827881FDE
:1019B00083878FB186FB882780F98927818F8FB134
:1019C00085FB882780F9892787A38FB1829581704D
:1019D000892785AB8FB1DF01AD5BBF4F86958170E5
:1019E00089278C938FB1DF01AA5BBF4F8170892754
:1019F0001B968C93529885E08A95F1F70000539AD4
:101A000085E08A95F1F700008FB18095881F8827BF
:101A1000881F84878FB186FB882780F98927828F6A
:101A20008FB185FB882780F9892780A78FB18295A0
:101A30008170892786AB8FB1DF01AC5BBF4F869584
:101A4000817089278C938FB1DF01AA5BBF4F8170B2
:101A500089271C968C93539885E08A95F1F70000AE
:101A60003E9A85E08A95F1F700008FB18095881F36
:101A70008827881F85878FB186FB882780F989276B
:101A8000838F8FB185FB882780F9892781A78FB144
:101A900082958170892787AB8FB1DF01AB5BBF4F28
:101AA0008695817089278C938FB1EA5BFF4F817097
:101AB000892785873E9885E08A95F1F7000080E0C8
:101AC000089508950895089508950895089508952E
:101AD000089508950895089508950895089508951E
:101AE000089508950895089508950895089508950E
:101AF00008950895089508950895089508950895FE
:101B000008950895089508950895089508950895ED
:101B100008950895089508950895089508950895DD
:101B200008950895089508950895089508950895CD
:101B300008950895089508950895089508950895BD
:101B400008950895089508950895089508950895AD
:101B5000089508950895089508950895089508959D
:101B6000089508950895089508950895089508958D
:101B700008950895089508950895089588E293CAF0
:101B80008CE291CA8BE28FCA82E58DCA81E58BCA4D
:101B900080E589CA8FE487CA8AE285CA8CE483CA51
:101BA0008DE481CA89E27FCA8AE47DCA89E47BCA5E
:101BB0008BE479CA8EE477CA82EE75CA80EE73CA66
:101BC00084EE71CA83EE6FCA87EE6DCA81EE6BCA6E
:101BD00085EE69CA88E26BCA8CE269CA8BE267CA81
:101BE00082E565CA81E563CA80E561CA8FE45FCAA0
:101BF0008AE25DCA8CE45BCA8DE459CA89E257CA9D
:101C00008AE455CA89E453CA8BE451CA8EE44FCAA8
:101C100082EE4DCA80EE4BCA84EE49CA83EE47CAB3
:101C200087EE45CA81EE43CA85EE41CA44CA41E007
:101C300061E080E0CACA42E062E080E0C6CA43E0F8
:101C400063E080E0C2CA81E01CCB82E01ACB83E073
:101C500018CB84E028DABBD384E029CA85E023DAF4
:101C6000B6D385E024CA86E01EDAB1D386E01FCA67
:101C700087E019DAACD387E01ACA88E014DAA7D370
:101C800088E015CA89E00FDAA2D389E010CA8AE099
:101C90000ADA9DD38AE00BCA8BE005DA98D38BE091
:101CA00006CA8CE000DA93D38CE001CA8DE0FBD940
:101CB0008ED38DE0FCC98EE0F6D989D38EE0F7C9CA
:101CC0008FE0F1D984D38FE0F2C980E1ECD97FD3E2
:101CD00080E1EDC981E1E7D97AD381E1E8C982E108
:101CE000E2D975D382E1E3C983E1DDD970D383E121
:101CF000DEC984E1D8D96BD384E1D9C985E1D3D9D0
:101D000066D385E1D4C986E1CED961D386E1CFC956
:101D100087E1C9D95CD387E1CAC988E1C4D957D35F
:101D200088E1C5C989E1BFD952D389E1C0C98AE137
:101D3000BAD94DD38AE1BBC98BE1B5D948D38BE180
:101D4000B6C98DE1B0D943D38DE1B1C98CE1ABD92E
:101D50003ED38CE1ACC98DE2A6D939D38DE2A7C9B7
:101D60008FE2A1D934D38FE2A2C983E39CD92FD3C8
:101D700083E39DC984E397D92AD384E398C987E292
:101D800092D925D387E293C98EE18DD920D38EE1F4
:101D90008EC98FE188D91BD38FE189C980E283D9AD
:101DA00016D380E284C981E27ED911D381E27FC952
:101DB00082E279D90CD382E27AC983E274D907D35B
:101DC00083E275C984E26FD902D384E270C985E2E7
:101DD0006AD9FDD285E26BC986E265D9F8D286E27E
:101DE00066C98AE360D9F3D28AE361C98BE35BD920
:101DF000EED28BE35CC98CE356D9E9D28CE357C9A8
:101E00008DE351D9E4D28DE352C98EE34CD9DFD2B0
:101E10008EE34DC98FE347D9DAD28FE348C980E416
:101E200042D9D5D280E443C981E43DD9D0D281E4FE
:101E30003EC982E438D9CBD282E439C983E433D9AC
:101E4000C6D283E434C984E42ED9C1D284E42FC934
:101E500085E429D9BCD285E42AC98EE224D9B7D237
:101E60008EE225C981EE1FD9B2D28EE21CD9AFD243
:101E70008EE21DD981EE1BC985E315D9A8D285E371
:101E800016C981EE10D9A3D28EE20DD9A0D28EE26E
:101E90000ED981EE0CD99BD28CE205D998D28CE276
:101EA00006C985E300D993D285E301D990D28CE2AB
:101EB000FAD88DD28CE2FBC881EEF5D888D285E2C3
:101EC000F2D885D285E2F3D881EEF1C881EEEBD865
:101ED0007ED286E2E8D87BD286E2E9D881EEE7C8F6
:101EE00081EEE1D874D28EE1DED871D28EE1DFD8F6
:101EF00081EEDDC886EED7D86AD284E1D4D867D225
:101F000084E1D5D886EED3C881EECDD860D281E207
:101F1000CAD85DD281E2CBD881EEC9C886EEC3D8DB
:101F200056D288E0C0D853D288E0C1D886EEBFC868
:101F300081EEB9D84CD282E2B6D849D282E2B7D883
:101F400081EEB5C881EEAFD842D283E2ACD83FD2A1
:101F500083E2ADD881EEABC881EEA5D838D280E35C
:101F6000A2D835D280E3A3D881EEA1C886EE9BD853
:101F70002ED28DE298D82BD28DE299D886EE97C8D2
:101F800086EE91D824D285E28ED821D285E28FD8F0
:101F900086EE8DC886EE87D81AD286E284D817D20C
:101FA00086E285D886EE83C886E37DD810D286E3A4
:101FB0007EC888E378D80BD288E379C881EE73D8DD
:101FC00006D287E270D803D287E271D881EE6FC85B
:101FD00087E369D8FCD187E36AC881EE64D8F7D17A
:101FE00081E361D8F4D181E362D881EE60C881EEEB
:101FF0005AD8EDD186E357D8EAD186E358D881EE96
:1020000056C881EE50D8E3D184E24DD8E0D184E2C5
:102010004ED881EE4CC886EE46D8D9D184E643D856
:10202000D6D184E644D886EE42C886EE3CD8CFD1DD
:1020300084E239D8CCD184E23AD886EE38C886EE2C
:1020400032D8C5D187E22FD8C2D187E230D886EE08
:102050002EC884E628D8BBD184E629C881EE23D8CF
:10206000B6D188E320D8B3D188E321D881EE1FC848
:1020700080E319D8ACD180E31AC886EE14D8A7D172
:1020800080E311D8A4D180E312D886EE10C881EE87
:102090000AD89DD184E607D89AD184E608D881EE83
:1020A00006C881EE00D893D18FE10E9453088FD1EA
:1020B0008FE10E94570881EE0C94570881EE0E9430
:1020C000530885D187E30E94530881D187E30E949A
:1020D000570881EE0C94570881EE0E94530877D17F
:1020E0008DE20E94530873D18DE20E94570881EE61
:1020F0000C94570881E30E94530869D181E30C9442
:10210000570885E60E94530862D185E60C9457086B
:1021100086E40E9453085BD186E40C94570883340C
:1021200011F483E0FDC80895833411F483E004C9F9
:102130000895CF93DF931F92CDB7DEB791E0982734
:1021400034E5639FF00111243EE0439FE00DF11D53
:102150001124E20FF11DEE0FFF1FE90FF11DEE0F2D
:10216000FF1FE454FF4F259134912115310589F06B
:1021700090917C019C7F9B7F90937C018983F901E6
:1021800009958981882329F00F90DF91CF910C94D4
:1021900049040F90DF91CF9108958F929F92AF9253
:1021A000BF92CF92DF92EF92FF920F931F93CF9344
:1021B000DF931F92CDB7DEB7F82EE62E242F8111C4
:1021C0001DC050E03EE0639FF0011124DF01A40F29
:1021D000B51FA85DBE4F6C9184E5689FE00DF11DB1
:1021E0001124E40FF51FEE0FFF1FEE0FFF1FE25447
:1021F000FF4F8591949181569D4071F4B12C822EB0
:10220000912C81E08F25C82ED12CFEE0EF9E80011D
:10221000112464E5A62E04C04E2D80E02AC0B3949C
:10222000298358D829818B1590F18B2D29830E9401
:10223000B608F801A89EE00DF11D1124E80DF91D66
:10224000EE0FFF1FEC0DFD1DEE0FFF1FE454FF4FBF
:1022500045915491298141565D4009F3FF2031F0A9
:10226000F801E80DF91DE85DFE4F80834E2D682FC3
:102270008F2D0F90DF91CF911F910F91FF90EF90D5
:10228000DF90CF90BF90AF909F908F9052CF0F90E4
:10229000DF91CF911F910F91FF90EF90DF90CF9042
:1022A000BF90AF909F908F90089597D080E0089551
:1022B000ABD091E0811101C090E0892F0895962F55
:1022C000662309F45BC0462F50E0FA01E05EF10995
:1022D000E830F105C0F5EA5AFF4F9091870138C305
:1022E000882311F0916005C09E7F03C0882329F0E8
:1022F00092609093870180E008959D7FFACF8823B4
:1023000011F09460F6CF9B7FF4CF882311F0986092
:10231000F0CF977FEECF882311F09061EACF9F7EB8
:10232000E8CF882311F09062E4CF9F7DE2CF88232D
:1023300011F09064DECF9F7BDCCF882311F0906892
:10234000D8CF9F77D6CFE1E8F1E020E030E04081C0
:10235000882339F041110CC0F901EF57FE4F9083EB
:10236000CACF491305C0F901EF57FE4F1082C3CF02
:102370002F5F3F4F31962630310549F781E00895B0
:102380008E34A1F04CF48334A9F08B34F1F48091B5
:102390007F018295817008958F3489F08335A9F487
:1023A00080917F0182FB882780F9089580917F01C9
:1023B0008170089580917F01869581700895809144
:1023C0007F0183FB882780F9089580E008951FC06E
:1023D0008091E80080FFFCCF089581E08093D700D2
:1023E00080EA8093D80082E189BD09B400FEFDCF68
:1023F00080E98093D8001092E000109288018CE070
:102400008093E200789408958091880108958091E6
:102410008801811102C08FEF08958FB7F89493E07F
:102420009093E9009091E4009E5C23E03091E800F5
:1024300035FD0EC08FBF80918801882361F38091A4
:10244000E400891741F38FB7F8942093E900EECFA9
:10245000909187019093F1001092F100E1E8F1E092
:1024600091919093F10091E0E738F907C9F79AE369
:102470009093E800109280018FBF80E008951F9232
:102480000F920FB60F9211248F939F93EF93FF93A8
:102490008091E1001092E10083FF0FC01092E900EB
:1024A00091E09093EB001092EC0092E29093ED009B
:1024B00098E09093F0001092880182FF33C08091E1
:1024C0008801882379F180910601882359F1809150
:1024D0007E018F5F80937E01837021F583E080937E
:1024E000E9008091E80085FF1DC0809180018F5F29
:1024F0008093800190910601891314C0109280018D
:10250000809187018093F1001092F100E1E8F1E001
:1025100081918093F10081E0E738F807C9F78AE3F9
:102520008093E800FF91EF919F918F910F900FBEE4
:102530000F901F9018951F920F920FB60F921124B3
:10254000EF92FF920F931F932F933F934F935F93BD
:102550006F937F938F939F93AF93BF93EF93FF936B
:10256000CF93DF931F92CDB7DEB71092E900809131
:10257000E80083FF21C19091F1008091F10030913A
:10258000F1002091F100E32EF12CF22A0091F100EC
:102590002091F10010E0122B2091F1006091F100E8
:1025A00032EF3093E800863009F046C037E08CEF18
:1025B00095E0FC01459154914E155F0539F4FC01FD
:1025C0003296459154914017510721F007963150AA
:1025D00081F7F2C0FC01349645915491FC01369686
:1025E000849130E0362B2F3F310519F010F02FEF9A
:1025F00030E0281708F4822F3EEF9091E800292F51
:102600002570D9F392FDDBC0982F813208F090E25B
:10261000FA01292F222331F064916093F1002150B7
:102620003196F8CF490F511D891B3093E800811175
:10263000E4CF903211F3C3C0853049F48EEF80931C
:10264000E800C6DE8E2D80688093E300B8C0893034
:1026500041F5911146C0E09288018EEF8093E80029
:1026600041E086EE96E04093E9009C012F5F3F4FEA
:10267000FC0154915093EB00552361F0F901249132
:102680002093EC009C012D5F3F4FFC01329684911A
:102690008093ED004F5F453011F0C901E4CF8EE12A
:1026A00041C0883039F4903809F041C091DE809102
:1026B000880160C0811115C099838ADE99819238A2
:1026C00051F40093E9008091EB0085FB882780F9A5
:1026D0001092E90001C080E08093F1001092F100B7
:1026E00067C0282F2D7F213011F5923001F5EF289A
:1026F00009F062C00F779FEF900F943008F05CC034
:102700009EEF9093E8000093E900833009F454C0F1
:1027100089E18093EB0081E090E0002E01C0880FFA
:102720000A94EAF78093EA001092EA0048C0012B6D
:1027300009F042C0913A09F5813089F449DE80916F
:1027400087018093F1001092F100E1E8F1E08191BE
:102750008093F10081E0E738F807C9F729C082309B
:1027600021F436DE8091060105C0833029F530DE84
:10277000809107018093F1001BC09132E9F4893008
:1027800061F48091E80082FFFCCF8091F10080939A
:102790007F018BEF8093E8000BC08A3029F4F09220
:1027A00006011092800104C08B3031F4E0920701E1
:1027B0008EEF8093E80003C081E28093EB000F90DE
:1027C000DF91CF91FF91EF91BF91AF919F918F9149
:1027D0007F916F915F914F913F912F911F910F9139
:1027E000FF90EF900F900FBE0F901F9018950E94D2
:1027F0006D09C82F0E94FD0958DD21E030E0C111AC
:1028000002C020E030E0282BC1E0232B09F4C0E017
:102810004FDD8823E9F30E946E0A0E947504D0E020
:10282000C82B0E94030ACD2B11F00E94090A0E94B6
:102830007F04855080938D01CEE080910B019091B3
:102840000C0190938C0180938B01209109013091B0
:102850000A0130930C0120930B0190930A0180939D
:1028600009010E947F0490918D01891B8530C8F376
:102870000E947F0480938D0180910B0190910C0147
:102880000E947E0910923C0280913C02863058F5ED
:1028900010923B0240913B0260913C024E30F8F4B2
:1028A000E0910B01F0910C01C69F90011124240FBF
:1028B000311DE20FF31F808180938A01E0910901AD
:1028C000F0910A01E20FF31F90819093890189131F
:1028D00064DC80913B028F5F80933B02DBCF6F5FB4
:1028E00060933C02D1CF73DD8091080180FF2DC041
:1028F0008EE446DD882319F08EE411DC02C08EE4FC
:1029000013DC83E43DDD882319F083E408DC02C096
:1029100083E40ADC83E534DD882319F083E5FFDBFB
:1029200002C083E501DC8FE42BDD882319F08FE4FE
:10293000F6DB02C08FE4F8DB8BE422DD882319F09C
:102940008BE4EDDB02C08BE4EFDB0E941D0475CF4E
:10295000EE0FFF1F0590F491E02D099433D088F01D
:102960009F5790F0B92F9927B751A0F0D1F0660F7B
:10297000771F881F991F1AF0BA95C9F712C0B13096
:1029800081F03AD0B1E0089537C0672F782F8827BB
:10299000B85F39F0B93FCCF3869577956795B395D5
:1029A000D9F73EF490958095709561957F4F8F4F44
:1029B0009F4F089557FD9058440F551F59F05F3FA2
:1029C00071F04795880F97FB991F61F09F3F79F051
:1029D00087950895121613061406551FF2CF4695D3
:1029E000F1DF08C0161617061806991FF1CF869555
:1029F0007105610508940895E894BB276627772739
:102A0000CB0197F908950BD078C069D028F06ED02B
:102A100018F0952309F05AC05FC01124EECFCADF29
:102A2000A0F3959FD1F3950F50E0551F629FF001E1
:102A3000729FBB27F00DB11D639FAA27F00DB11D3A
:102A4000AA1F649F6627B00DA11D661F829F2227C3
:102A5000B00DA11D621F739FB00DA11D621F839F4A
:102A6000A00D611D221F749F3327A00D611D231F20
:102A7000849F600D211D822F762F6A2F11249F576E
:102A800050408AF0E1F088234AF0EE0FFF1FBB1F91
:102A9000661F771F881F91505040A9F79E3F510530
:102AA00070F014C0AACF5F3FECF3983EDCF386953C
:102AB00077956795B795F795E7959F5FC1F7FE2BDB
:102AC000880F911D9695879597F9089597F99F67B7
:102AD00080E870E060E008959FEF80EC08950024A6
:102AE0000A941616170618060906089500240A9473
:102AF00012161306140605060895092E0394000CF9
:102B000011F4882352F0BB0F40F4BF2B11F460FF87
:102B100004C06F5F7F4F8F4F9F4F0895A0E0B0E0DC
:102B2000E3E9F5E1F2C1EC01CB01209711F4C2D049
:102B3000B4C0FE01E60FF71F9E0122503109E217D3
:102B4000F30708F4A8C0D9010D911C91119706173D
:102B50001707B0F00530110508F49BC0A8014450D8
:102B600051094617570708F494C002501109061B73
:102B7000170B019311936D937C93CF0133D189C0CF
:102B80005B01A01AB10A4E01800E911EA0913F0276
:102B9000B0914002612C712C60E070E0109709F454
:102BA00049C0A815B905C9F5ED90FC9011976701CA
:102BB00042E0C40ED11CCA14DB0478F147018A1824
:102BC0009B08640142E0C40ED11C1296BC9012977F
:102BD0001396AC91B5E0CB16D10440F0B282A3833A
:102BE00091828082D9018D939C9309C00E5F1F4F03
:102BF0000E0D1F1DF90111830083EB2DFA2F6115B6
:102C0000710531F0DB011396FC93EE93129741C0EE
:102C1000F0934002E0933F023CC06D917C9111978C
:102C20006616770608F43B01BD0112960D90BC9123
:102C3000A02DB4CF60913D0270913E0268157905D8
:102C4000E9F468167906D0F4409100015091010131
:102C50004115510541F44DB75EB760910401709183
:102C60000501461B570BE417F507A8F4F0933E0245
:102C7000E0933D02F901918380830BC01BD07C015E
:102C8000009749F0A801BE010CD0CE01ABD0C7011E
:102C900004C0CE0102C080E090E0CDB7DEB7EEE028
:102CA00050C1FB01DC0102C001900D924150504027
:102CB000D8F70895CF93DF938230910510F482E026
:102CC00090E0E0913F02F091400220E030E0A0E08F
:102CD000B0E0309739F14081518148175907B8F079
:102CE0004817590771F482819381109729F0139640
:102CF0009C938E9312972CC09093400280933F0236
:102D000027C02115310531F04217530718F0A901EA
:102D1000DB0101C0EF019A01BD01DF010280F381F7
:102D2000E02DD7CF21153105F9F0281B390B2430C0
:102D3000310580F48A819B816115710521F0FB01C9
:102D40009383828304C09093400280933F02FE01EC
:102D5000329644C0FE01E20FF31F819391932250FB
:102D60003109398328833AC020913D0230913E02D7
:102D7000232B41F4209102013091030130933E0254
:102D800020933D0220910001309101012115310570
:102D900041F42DB73EB74091040150910501241B29
:102DA000350BE0913D02F0913E02E217F307A0F4EB
:102DB0002E1B3F0B2817390778F0AC014E5F5F4F91
:102DC0002417350748F04E0F5F1F50933E02409383
:102DD0003D028193919302C0E0E0F0E0CF01DF91EA
:102DE000CF910895CF93DF93009709F487C0FC013A
:102DF000329713821282C0913F02D09140022097F5
:102E000081F420813181280F391F80913D029091FA
:102E10003E028217930779F5F0933E02E0933D025C
:102E20006DC0DE0120E030E0AE17BF0750F412960F
:102E30004D915C9113979D014115510509F1DA01FE
:102E4000F3CFB383A28340815181840F951F8A17EA
:102E50009B0771F48D919C911197840F951F029699
:102E60009183808312968D919C9113979383828393
:102E70002115310529F4F0934002E0933F023EC052
:102E8000D9011396FC93EE9312974D915D91A40F87
:102E9000B51FEA17FB0779F480819181840F951F94
:102EA0000296D90111969C938E93828193811396F9
:102EB0009C938E931297E0E0F0E08A819B810097CB
:102EC00019F0FE01EC01F9CFCE010296288139817B
:102ED000820F931F20913D0230913E02281739073F
:102EE00069F4309729F41092400210923F0202C018
:102EF00013821282D0933E02C0933D02DF91CF91A4
:102F000008952F923F924F925F926F927F928F928D
:102F10009F92AF92BF92CF92DF92EF92FF920F9368
:102F20001F93CF93DF93CDB7DEB7CA1BDB0B0FB672
:102F3000F894DEBF0FBECDBF09942A88398848882F
:102F40005F846E847D848C849B84AA84B984C884C5
:102F5000DF80EE80FD800C811B81AA81B981CE0FBC
:102F6000D11D0FB6F894DEBF0FBECDBFED010895A1
:042F7000F894FFCF03
:0E2F74000000410220007D01018E01E20100FB
:00000001FF
